{
  "contractName": "Faucet",
  "abi": [
    {
      "stateMutability": "payable",
      "type": "receive",
      "payable": true
    },
    {
      "inputs": [],
      "name": "addFunds",
      "outputs": [],
      "stateMutability": "payable",
      "type": "function",
      "payable": true
    }
  ],
  "bytecode": "0x6080604052348015600f57600080fd5b50606a80601d6000396000f3fe608060405260043610601f5760003560e01c8063a26759cb14602a576025565b36602557005b600080fd5b60306032565b005b56fea264697066735822122077f26e0a749fc67a770c7ad42d1f8a9fbc9e156092703f6a0ab8b9ac09223e2164736f6c63430008040033",
  "immutableReferences": {},
  "source": "// SPDX-License-Identifier: MIT\r\npragma solidity >=0.4.22 <0.9.0;\r\n\r\ncontract Faucet {\r\n\r\n    receive() external payable {\r\n\r\n    }\r\n\r\n    function addFunds() external payable {}\r\n}\r\n\r\n",
  "sourcePath": "C:\\Users\\eldad\\PhpstormProjects\\blockchain\\reactsolidity\\contracts\\FaucetContract.sol",
  "compiler": {
    "name": "solc",
    "version": "0.8.4+commit.c7e474f2.Emscripten.clang"
  },
  "schemaVersion": "3.4.16",
  "updatedAt": "2025-02-03T23:21:52.902Z",
  "networkType": "ethereum",
  "devdoc": {
    "kind": "dev",
    "methods": {},
    "version": 1
  },
  "userdoc": {
    "kind": "user",
    "methods": {},
    "version": 1
  }
}