{
  "contractName": "Faucet",
  "abi": [
    {
      "constant": true,
      "inputs": [],
      "name": "counter",
      "outputs": [
        {
          "name": "",
          "type": "int256"
        }
      ],
      "payable": false,
      "stateMutability": "view",
      "type": "function"
    },
    {
      "constant": true,
      "inputs": [],
      "name": "funds",
      "outputs": [
        {
          "name": "",
          "type": "uint256"
        }
      ],
      "payable": false,
      "stateMutability": "view",
      "type": "function"
    },
    {
      "constant": true,
      "inputs": [],
      "name": "test",
      "outputs": [
        {
          "name": "",
          "type": "uint32"
        }
      ],
      "payable": false,
      "stateMutability": "view",
      "type": "function"
    }
  ],
  "bytecode": "0x60806040526103e86000557ffffffffffffffffffffffffffffffffffffffffffffffffffffffffffffffff660015563ffffffff600260006101000a81548163ffffffff021916908363ffffffff16021790555034801561005f57600080fd5b506101248061006f6000396000f3fe608060405260043610604d576000357c01000000000000000000000000000000000000000000000000000000009004806361bc221a146052578063c89f2ce414607a578063f8a8fd6d1460a2575b600080fd5b348015605d57600080fd5b50606460d6565b6040518082815260200191505060405180910390f35b348015608557600080fd5b50608c60dc565b6040518082815260200191505060405180910390f35b34801560ad57600080fd5b5060b460e2565b604051808263ffffffff1663ffffffff16815260200191505060405180910390f35b60015481565b60005481565b600260009054906101000a900463ffffffff168156fea165627a7a723058201e90cb6fd43a1d6732f20cb32fa34013a0930392477760ded150a0b6471c68f10029",
  "source": "// SPDX-License-Identifier: MIT\r\npragma solidity >=0.4.22 <0.9.0;\r\n\r\ncontract Faucet {\r\n    uint public funds = 1000;\r\n    int public counter = -10;\r\n    uint32 public test = 4294967295;\r\n}\r\n\r\n",
  "sourcePath": "C:\\Users\\eldad\\PhpstormProjects\\blockchain\\reactsolidity\\contracts\\FaucetContract.sol",
  "compiler": {
    "name": "solc",
    "version": "0.5.1+commit.c8a2cb62.Emscripten.clang"
  },
  "schemaVersion": "3.4.16",
  "updatedAt": "2025-02-03T15:28:11.541Z",
  "networkType": "ethereum",
  "devdoc": {
    "methods": {}
  },
  "userdoc": {
    "methods": {}
  }
}