{
  "contractName": "Faucet",
  "abi": [
    {
      "inputs": [
        {
          "internalType": "uint256",
          "name": "",
          "type": "uint256"
        }
      ],
      "name": "funders",
      "outputs": [
        {
          "internalType": "address",
          "name": "",
          "type": "address"
        }
      ],
      "stateMutability": "view",
      "type": "function",
      "constant": true
    },
    {
      "stateMutability": "payable",
      "type": "receive",
      "payable": true
    },
    {
      "inputs": [],
      "name": "addFunds",
      "outputs": [],
      "stateMutability": "payable",
      "type": "function",
      "payable": true
    },
    {
      "inputs": [],
      "name": "getAllFunders",
      "outputs": [
        {
          "internalType": "address[]",
          "name": "",
          "type": "address[]"
        }
      ],
      "stateMutability": "view",
      "type": "function",
      "constant": true
    },
    {
      "inputs": [
        {
          "internalType": "uint256",
          "name": "index",
          "type": "uint256"
        }
      ],
      "name": "getFunderAtIndex",
      "outputs": [
        {
          "internalType": "address",
          "name": "",
          "type": "address"
        }
      ],
      "stateMutability": "view",
      "type": "function",
      "constant": true
    }
  ],
  "bytecode": "0x608060405234801561001057600080fd5b50610457806100206000396000f3fe6080604052600436106100435760003560e01c80636fbbb55d1461004f578063a26759cb1461007a578063c218deca14610084578063dc0d3dff146100c15761004a565b3661004a57005b600080fd5b34801561005b57600080fd5b506100646100fe565b6040516100719190610373565b60405180910390f35b61008261018c565b005b34801561009057600080fd5b506100ab60048036038101906100a6919061029b565b6101f1565b6040516100b89190610358565b60405180910390f35b3480156100cd57600080fd5b506100e860048036038101906100e3919061029b565b610247565b6040516100f59190610358565b60405180910390f35b6060600080548060200260200160405190810160405280929190818152602001828054801561018257602002820191906000526020600020905b8160009054906101000a900473ffffffffffffffffffffffffffffffffffffffff1673ffffffffffffffffffffffffffffffffffffffff1681526020019060010190808311610138575b5050505050905090565b6000339080600181540180825580915050600190039060005260206000200160009091909190916101000a81548173ffffffffffffffffffffffffffffffffffffffff021916908373ffffffffffffffffffffffffffffffffffffffff160217905550565b6000806101fc6100fe565b9050808381518110610237577f4e487b7100000000000000000000000000000000000000000000000000000000600052603260045260246000fd5b6020026020010151915050919050565b6000818154811061025757600080fd5b906000526020600020016000915054906101000a900473ffffffffffffffffffffffffffffffffffffffff1681565b6000813590506102958161040a565b92915050565b6000602082840312156102ad57600080fd5b60006102bb84828501610286565b91505092915050565b60006102d083836102dc565b60208301905092915050565b6102e5816103ce565b82525050565b6102f4816103ce565b82525050565b6000610305826103a5565b61030f81856103bd565b935061031a83610395565b8060005b8381101561034b57815161033288826102c4565b975061033d836103b0565b92505060018101905061031e565b5085935050505092915050565b600060208201905061036d60008301846102eb565b92915050565b6000602082019050818103600083015261038d81846102fa565b905092915050565b6000819050602082019050919050565b600081519050919050565b6000602082019050919050565b600082825260208201905092915050565b60006103d9826103e0565b9050919050565b600073ffffffffffffffffffffffffffffffffffffffff82169050919050565b6000819050919050565b61041381610400565b811461041e57600080fd5b5056fea2646970667358221220236b032aa8579974e9e7ed05584c6e2e4dc0aca7af4f410b2828eaa61e51bf2264736f6c63430008040033",
  "immutableReferences": {},
  "source": "// SPDX-License-Identifier: MIT\r\npragma solidity >=0.4.22 <0.9.0;\r\n\r\ncontract Faucet {\r\n\r\n    address[] public funders;\r\n\r\n    receive() external payable {}\r\n\r\n    function addFunds() external payable {\r\n        funders.push(msg.sender);\r\n    }\r\n\r\n    function getAllFunders() public view returns(address[] memory){\r\n        return funders;\r\n    }\r\n\r\n    function getFunderAtIndex(uint index) external view returns(address){\r\n        address[] memory _funders = getAllFunders();\r\n        return _funders[index];\r\n    }\r\n\r\n}\r\n\r\n\r\n// \r\n",
  "sourcePath": "C:\\Users\\eldad\\PhpstormProjects\\blockchain\\reactsolidity\\contracts\\FaucetContract.sol",
  "compiler": {
    "name": "solc",
    "version": "0.8.4+commit.c7e474f2.Emscripten.clang"
  },
  "schemaVersion": "3.4.16",
  "updatedAt": "2025-02-04T10:44:00.676Z",
  "networkType": "ethereum",
  "devdoc": {
    "kind": "dev",
    "methods": {},
    "version": 1
  },
  "userdoc": {
    "kind": "user",
    "methods": {},
    "version": 1
  }
}